:020000040000fa
:080000000002040000000000f2
:020000040000fa
:1000080090020000900200009002000090020000a0
:100018009002000090020000900200009002000090
:100028009002000090020000900200009002000080
:100038009002000090020000900200009002000070
:020000040000fa
:020000040000fa
:10040000af8020000eff20000e01880000000000d9
:100410000c000700006b2000010020001100070005
:10042000000020000000e000020032000000020096
:100430000000000094020200000000000040da000a
:100440000000fe004440a900000020000000e00081
:100450000300320000002000a00188004440a800f2
:100460000000060091018800800078000000eb0089
:1004700015003700e280400032a0b4009101ba00bc
:10048000e280400032a0b4009102ba00e280400055
:1004900032a0b4000002eb00472bde00f507b200eb
:1004a000602ce10004003a000059eb008301e900f0
:1004b000fdff3e00040037006128e100010032002a
:1004c0000082eb00040007001101ba000200e00006
:1004d000e8ff3a00000006003159ba008301e90044
:1004e0000c0032002159ba008301e90008003200f3
:1004f0000400e00003003a00e280400032a0b400b3
:10050000f5ff370011d9ba008301e900faff3a007c
:100510008100e800e180400032a0b4000000060045
:080520000040da000000fe00bb
:020000040000fa
:100528000000fa0033000700cdc2a800cde2a90000
:10053800cd82a800cda2a900401f2000f801070025
:10054800a90007004901070041010700fc00070056
:1005580059010700db00070041408000900f200090
:10056800808f500002003e00ca01070013003700c8
:1005780041408000a00f2000808f50000600360008
:1005880041408000d0152000808f500002003e00be
:10059800a80107000900370041408000e01520004d
:1005a800808f50000500360041408000f07c20001c
:1005b800808f500001003e0084010700cdc2a800d2
:1005c800cde2a900cd82a800cda2a9006009200033
:1005d800d30107008400070024010700d8000700a2
:1005e8001b01070000a62e00cd0107000080fa00bd
:1005f800000006000000fa000421a900210880007c
:1006080000032000008070002008880000192000e6
:10061800100888000000eb00000888008460a9002a
:1006280005e1a800cd02a900c902a900cca2a90031
:10063800c8a2a900ccc2a900c8c2a900e004a800a9
:100648000000eb00001a88000000eb00401a880048
:100658000000eb00801a880020f02100201a880092
:100668000000eb00101a880041e3a8004023a8000e
:1006780010002000aa0107004023a9000000000084
:10068800001a800061006000e00f5000fcff32009b
:100698000018800000408800e284a800e064a800f8
:1006a800e044a800e024a800c942a900cd42a9005e
:1006b800c9e2a900cde2a900c9c2a900cdc2a8001b
:1006c800210d800080ff2f0000806000200d880031
:1006d80000408000500d8800210d8000f03f2e0062
:1006e80000806000200d8800210d800080ff2f0011
:1006f800008060006000b300200d8800c962a90076
:10070800cd62a900c9a2a900cda2a900c982a900e9
:10071800cd82a800d10c800080ff2f0000806000ef
:10072800d00c880000408000000d8800d10c8000ab
:10073800f03f2e0000806000d00c8800d10c8000b3
:1007480080ff2f00008060006000b300d00c88009c
:10075800c8e2a900cce2a900c842a900cc42a9007d
:10076800c862a900cc62a900810c800080ff2f001c
:1007780000806000800c880000408000b00c880079
:10078800810c8000f03f2e0000806000800c880003
:10079800810c800080ff2f00008060006000b300a3
:1007a800800c880011e1a9001021a90010c1a9003e
:1007b80081088000f0fc2f0080806000000220008b
:1007c80000807000800888000000eb003008880076
:1007d800004020006008880084e0a90011e1a8001a
:1007e8000080fa00000006000000fa00f000200077
:1007f800401a88004023a800500020004801070044
:100808004023a90000000000001a80006100600079
:10081800e00f5000fcff32000018800010408800f4
:10082800e0002000401a88004023a8005000200063
:100838003b0107004023a90000000000001a8000c7
:1008480061006000e00f5000fcff320000188000db
:1008580030408800d0002000401a88004023a800bb
:10086800500020002e0107004023a90000000000ce
:10087800001a800061006000e00f5000fcff3200a9
:1008880000188000204088000000eb00401a880013
:100898004023a80010002000210107004023a900e0
:1008a80000000000001a800061006000e00f5000a6
:1008b800fcff320000188000004088000080fa0029
:1008c800000006000000fa00409c20001401070008
:1008d80010002000401a88004023a80020032000b0
:1008e8000f0107004023a90000000000001a800043
:1008f80061006000e00f5000fcff3200001880002b
:10090800404088000080fa00000006000000fa005d
:10091800cdc2a900cde2a800cd82a900cda2a80031
:10092800401f2000fe000700cdc2a900cde2a900ab
:10093800cd82a900cda2a9000080fa00000006001f
:100948000000fa00cdc2a900cde2a800cd82a9001e
:10095800cda2a80040062000f1000700cdc2a900e2
:10096800cde2a900cd82a900cda2a9000080fa009d
:10097800000006000000fa0010408000fd0f500043
:1009880002003e00ccc2a80001003700ccc2a9007a
:1009980031408000900f2000808f500002003e0000
:1009a800cca2a80001003700cca2a90020408000fa
:1009b800f30f500002003e00cd02a80001003700ee
:1009c800cd02a9000080fa00000006000000fa002d
:1009d80000408000500d880000408000000d880015
:1009e80010408000fd0f500008003e0020408000ad
:1009f800f40f500014003600cdc2a900cde2a800c3
:100a0800cd82a800cda2a9000f00370020408000a9
:100a1800f30f500008003e0010408000fe0f500009
:100a280009003600cdc2a800cde2a900cd82a900f8
:100a3800cda2a80004003700cdc2a800cde2a900cd
:100a4800cd82a800cda2a9000080fa00000006000f
:100a58000000fa00cdc2a900cde2a900cd82a9000c
:100a6800cda2a9000080fa00000006000000fa00ec
:100a78000c0037005cff0700beff0700d3ff07002c
:100a88009e0007000400370057ff0700b9ff070062
:100a9800ceff07009900070020408000f40f5000a7
:100aa800f9ff3e0010408000fe0f5000f1ff3e00ad
:100ab8000080fa00000006000000fa00cc42a900fd
:100ac800cc62a800a028200095000700cc42a9000d
:100ad800cc62a9000080fa00000006000000fa00bd
:100ae800cdc2a800cde2a900cd82a900cda2a80060
:100af800401f20008a0007003bff07000500370061
:100b0800cdc2a800cde2a900cd82a900cda2a8003f
:100b180035ff070031408000a00f2000808f500073
:100b2800f7ff3e000080fa00000006000000fa000f
:100b3800cdc2a800cde2a900cd82a900cda2a8000f
:100b4800201c20007600070027ff0700050037005b
:100b5800cdc2a800cde2a900cd82a900cda2a800ef
:100b680021ff070031408000a00f2000808f500037
:100b7800f7ff3e000080fa00000006000000fa00bf
:100b8800cdc2a900cde2a800cd82a800cda2a900bf
:100b9800201c20006200070013ff07000500370033
:100ba800cdc2a900cde2a800cd82a800cda2a9009f
:100bb8000dff070031408000a00f2000808f5000fb
:100bc800f7ff3e000080fa00000006000000fa006f
:100bd800cdc2a800cde2a900cd82a800cda2a9006f
:100be800401f20004e000700e4ff0700fefe07003c
:100bf8009eff070096ff0700afff070043ff0700af
:100c0800b6ff070099ff0700cdc2a800cde2a900f2
:100c1800cd82a800cda2a900a00f200040000700a7
:100c2800c2ff0700f0fe070090ff07000080fa00ef
:100c3800000006000000fa00cdc2a800cde2a9001d
:100c4800cd82a800cda2a900803e20003400070074
:100c5800e5fe070085ff07007dff070096ff0700f8
:100c68002aff07009dff070080ff0700cdc2a800ec
:100c7800cde2a900cd82a800cda2a900401f200086
:100c880027000700d8fe070078ff07000080fa0059
:100c9800000006000000fa00cdc2a800cde2a900bd
:100ca800cd82a800cda2a900401f20001c0007008b
:100cb8009eff0700ccfe07006cff070064ff0700db
:100cc8007dff070011ff070084ff070067ff07008b
:100cd800cdc2a800cde2a900cd82a800cda2a9006e
:100ce800a00f20000e000700a4ff0700befe0700ab
:100cf8005eff07000080fa00000006000000fa000e
:100d0800000000002004800068006000e00f500030
:100d1800fcff32008460a9000080fa000000060091
:100d28000200fa00000f780002003700a00f090047
:100d3800000000001e00ea001e0070004f00de00e8
:100d4800004078001e0fe900e04f5000f7ff3a001e
:080d58000080fa000000060013
:020000040000fa
:100d6000000800000a000000000000000000000071
:020000040000fa
:0200000401f009
:04000c0058ff000099
:020000040000fa
:0200000401f009
:04001000fbff0000f2
:020000040000fa
:0200000401f009
:040014005fff00008a
:020000040000fa
:0200000401f009
:04001c00ffff0000e2
:020000040000fa
:0200000401f009
:040020007fff00005e
:00000001FF
